{
  "_format": "hh-sol-artifact-1",
  "contractName": "PriceTracker",
  "sourceName": "contracts/PriceTracker.sol",
  "abi": [
    {
      "inputs": [
        {
          "internalType": "address",
          "name": "_priceConsumer",
          "type": "address"
        }
      ],
      "stateMutability": "nonpayable",
      "type": "constructor"
    },
    {
      "inputs": [
        {
          "internalType": "address",
          "name": "daiAggregator",
          "type": "address"
        }
      ],
      "name": "getLatestDaiPrice",
      "outputs": [
        {
          "internalType": "int256",
          "name": "",
          "type": "int256"
        }
      ],
      "stateMutability": "view",
      "type": "function"
    },
    {
      "inputs": [
        {
          "internalType": "address",
          "name": "usdcAggregator",
          "type": "address"
        }
      ],
      "name": "getLatestUsdcPrice",
      "outputs": [
        {
          "internalType": "int256",
          "name": "",
          "type": "int256"
        }
      ],
      "stateMutability": "view",
      "type": "function"
    },
    {
      "inputs": [],
      "name": "priceConsumer",
      "outputs": [
        {
          "internalType": "contract PriceConsumerV3",
          "name": "",
          "type": "address"
        }
      ],
      "stateMutability": "view",
      "type": "function"
    }
  ],
  "bytecode": "0x608060405234801561001057600080fd5b50604051610695380380610695833981810160405281019061003291906100db565b806000806101000a81548173ffffffffffffffffffffffffffffffffffffffff021916908373ffffffffffffffffffffffffffffffffffffffff16021790555050610108565b600080fd5b600073ffffffffffffffffffffffffffffffffffffffff82169050919050565b60006100a88261007d565b9050919050565b6100b88161009d565b81146100c357600080fd5b50565b6000815190506100d5816100af565b92915050565b6000602082840312156100f1576100f0610078565b5b60006100ff848285016100c6565b91505092915050565b61057e806101176000396000f3fe608060405234801561001057600080fd5b50600436106100415760003560e01c80633fb4e00614610046578063461a758c14610076578063d480f76f14610094575b600080fd5b610060600480360381019061005b919061036d565b6100c4565b60405161006d91906103b3565b60405180910390f35b61007e6101d5565b60405161008b919061042d565b60405180910390f35b6100ae60048036038101906100a9919061036d565b6101f9565b6040516100bb91906103b3565b60405180910390f35b60008073ffffffffffffffffffffffffffffffffffffffff168273ffffffffffffffffffffffffffffffffffffffff1603610134576040517f08c379a000000000000000000000000000000000000000000000000000000000815260040161012b906104a5565b60405180910390fd5b60008054906101000a900473ffffffffffffffffffffffffffffffffffffffff1673ffffffffffffffffffffffffffffffffffffffff166316345f18836040518263ffffffff1660e01b815260040161018d91906104d4565b602060405180830381865afa1580156101aa573d6000803e3d6000fd5b505050506040513d601f19601f820116820180604052508101906101ce919061051b565b9050919050565b60008054906101000a900473ffffffffffffffffffffffffffffffffffffffff1681565b60008073ffffffffffffffffffffffffffffffffffffffff168273ffffffffffffffffffffffffffffffffffffffff1603610269576040517f08c379a0000000000000000000000000000000000000000000000000000000008152600401610260906104a5565b60405180910390fd5b60008054906101000a900473ffffffffffffffffffffffffffffffffffffffff1673ffffffffffffffffffffffffffffffffffffffff166316345f18836040518263ffffffff1660e01b81526004016102c291906104d4565b602060405180830381865afa1580156102df573d6000803e3d6000fd5b505050506040513d601f19601f82011682018060405250810190610303919061051b565b9050919050565b600080fd5b600073ffffffffffffffffffffffffffffffffffffffff82169050919050565b600061033a8261030f565b9050919050565b61034a8161032f565b811461035557600080fd5b50565b60008135905061036781610341565b92915050565b6000602082840312156103835761038261030a565b5b600061039184828501610358565b91505092915050565b6000819050919050565b6103ad8161039a565b82525050565b60006020820190506103c860008301846103a4565b92915050565b6000819050919050565b60006103f36103ee6103e98461030f565b6103ce565b61030f565b9050919050565b6000610405826103d8565b9050919050565b6000610417826103fa565b9050919050565b6104278161040c565b82525050565b6000602082019050610442600083018461041e565b92915050565b600082825260208201905092915050565b7f496e76616c696420616464726573737300000000000000000000000000000000600082015250565b600061048f601083610448565b915061049a82610459565b602082019050919050565b600060208201905081810360008301526104be81610482565b9050919050565b6104ce8161032f565b82525050565b60006020820190506104e960008301846104c5565b92915050565b6104f88161039a565b811461050357600080fd5b50565b600081519050610515816104ef565b92915050565b6000602082840312156105315761053061030a565b5b600061053f84828501610506565b9150509291505056fea2646970667358221220312fe1e8f328b0d0a37ae9ced21fa5ab0a88cfa3ed8754466986c28dd003678664736f6c63430008120033",
  "linkReferences": {},
  "deployedLinkReferences": {}
}